:020000040800F2
:1000000008030020D50000089904000897040008A0
:1000100000000000000000000000000000000000E0
:100020000000000000000000000000006105000862
:100030000000000000000000ED0400088905000831
:10004000E700000800000000E7000008E7000008E3
:10005000E7000008E700000853030008E700000875
:10006000E7000008E7000008E7000008E7000008D4
:10007000E7000008E7000008E7000008E7000008C4
:1000800000000000E7000008000000000000000081
:1000900000000000E7000008E7000008E700000893
:1000A00000000000E700000800000000E700000872
:1000B0000000000000000000000000000000000040
:1000C0000348854600F0C0F800480047010D0008CD
:1000D000080300200448804704480047FEE7FEE785
:1000E000FEE7FEE7FEE7FEE78D050008C100000819
:1000F000F0B51FB40646002082B0054640240191A9
:1001000000901BE0019922460F46304600F08AF825
:10011000049A059B801A994110D31046194622462D
:1001200000F070F8361A8F41019722460120002115
:10013000009F00F067F838184D4100902046641E7B
:100140000028DFDC019B00982946324607B0F0BD4D
:10015000D2B201E00270401C491EFBD2704700225F
:10016000F6E710B513460A4604461946FFF7F0FFB6
:10017000204610BD70B50446002903D0002020227F
:10018000012310E0002801D00020C043C046C04633
:100190000DE02546D5408D4205D30D469540641BA4
:1001A0001D46954040191546521E002DF1DC214692
:1001B00070BD000070B5002504462E46002911D000
:1001C000002C01DA01254442002901DA01264942C6
:1001D0002046FFF7CFFFB54200D04042002D00D0AF
:1001E000494270BD002C02DA0121C90702E0002C4F
:1001F00000DD03490846C046C046214670BD0000E8
:10020000FFFFFF7F10B5202A04DB0146203A914012
:10021000002010BD914020239C1A0346E34019435F
:10022000904010BD10B5202A04DB0846203AD0408B
:10023000002110BD0B46D340D0402024A21A91408B
:100240000843194610BD0000064C0125064E05E086
:10025000E36807CC2B430C3C98471034B442F7D3E7
:10026000FFF732FF1411000834110008836A0B43B2
:1002700083624261704701607047002901D001210B
:1002800000E0022182680A438260704710B5074986
:10029000884200D010BD01214C02204600F052F9E6
:1002A0000021204600F04EF910BDC0460024014058
:1002B0000121C90782680A438260074983684A1E90
:1002C0008A4202D2002B1146F8D48168002901D459
:1002D000006C704700207047FFEF0000006C80B298
:1002E0007047CA0101D4006803E001221206806849
:1002F00090430840411E88417047000070B5C268B5
:10030000064B13400E1D74CE1A430978490311435E
:10031000214329433143C16070BDC04600D2FFFF75
:10032000816804220A4382607047002101704160A5
:100330008160C1600161704781B000900098002821
:1003400005D00098401E009000980028F9D101B017
:10035000704780B5022000F017F8002802D0022074
:1003600000F002F880BD0000014908607047C046F7
:100370001404014021480021016041608160C16096
:10038000C94341617047C0461C490A680240531E78
:100390009A4149690840411E884110407047C04653
:1003A00010B582791549002A1CD002680B68934366
:1003B0000B604B6893434B6003790B431C681443F9
:1003C0001C6002688B6893438B60CB689343CB605F
:1003D000407910280DD1886810438860C8681043A0
:1003E000C86010BD02790A4300681168814311603A
:1003F00010BD084301681143016010BD00040140B5
:10040000F0B50A6800231C4614E003269E400768E6
:10041000B74307609D4007682F430760C568B54331
:10042000C560CD799D40C6682E43C6609B1C641C88
:10043000102C1DD01546E540ED07F7D00D796E1E46
:10044000012EE2D803269E408768B74387604E7925
:100450009E408768374387600126A6404768B743B8
:1004600047608E79A640B6B2476837434760CCE70D
:100470000A68097A002903D0016B91430163F0BD3A
:10048000016B11430163F0BD00690840411E8841C2
:10049000704781627047FEE77047000070B50178D1
:1004A0008278002A15D0FC220A400D4BD4588D07C3
:1004B000ED0EFF26AE40B44340788001C0B2A840A4
:1004C0002043D0501F200840012181400548016091
:1004D00070BD1F200140012088400349086070BDA5
:1004E00000E400E000E100E080E100E0704700008F
:1004F000054A002903D01168014311607047116853
:10050000814311607047C04614100240054A00291B
:1005100003D0116801431160704711688143116075
:100520007047C0461C100240054A002903D01168DC
:100530000143116070471168814311607047C046E4
:1005400018100240054A002903D0116801431160C8
:1005500070471168814311607047C0460C1002401B
:1005600070470000B0B5FC220A40064BD4588907FA
:10057000090F0F258D40AC43D4508840D15801431A
:10058000D150B0BD0800014070470000F0B585B003
:100590003548031F19680122114319600168334C63
:1005A0000C400460C16A1324A143C1620021416070
:1005B0002F4C2468250C254205D11D686405A40C28
:1005C0001D6825431D6004910391029101910091E2
:1005D0001C6814431C600F24E402264D2E68A643B9
:1005E0002E600724E6022F6837432F60864E1F686F
:1005F00002252F400397049F7F1C0497039F002F21
:1006000002D1049FB742F2D11B689B0701D403912A
:1006100000E00392184A039B012B21D11368029337
:10062000029BA3430293029B2B4313600368019335
:10063000F023019D9D430195019B03600368009396
:100640002302009C9C430094009B036003680324E6
:10065000A34303600368036003681B079B0FFBD180
:10066000516705B0F0BDC046041002401CB8FFF849
:1006700020F8FF1FE81002400020024010B50A4099
:100680004000F34B1C5A8C43A118195210BDC046B0
:10069000F0B58DB000200C900B900A900990059059
:1006A000089028254820049038240126FF20039034
:1006B00004E000F0FBFC019C029E009D00F09AFC0F
:1006C00050480078010704D4E1B2702907D3002113
:1006D00006E0E3B2002B00D0631E039A04E0012180
:1006E000039A800808402318049950B2002801D4C6
:1006F000174600E00127CCB2002C00D0174678B294
:1007000020180721884371B2EDB269184F2900DD26
:100710007642502813D170B22918DAB250088142BB
:100720000DDB30325208914209DC291A052048437A
:1007300018211E46FFF73EFD3346861E7F4278B2E3
:100740002418E008C0B204280CD80521414308A8A9
:10075000401871B269180909C9B2425C002A00D177
:100760000122425404942006C40E0B2C34D2039769
:100770000296F0B22E181D4600F048F80096F0B22E
:10078000C008214600F0EAF80195E8B200090A2104
:1007900003220123079300F0EBF808AC059E04E068
:1007A000069C641D761C042E83D0059F069403E0EE
:1007B000BF1C641C0A2FF3D020780028F8D1F8B2AF
:1007C000F5B2294600F0CAF8384607990843C0B286
:1007D000294600F0C3F8EBE700259D4E0A4C32880D
:1007E0006240E8B22146FFF749FFB61C6D1C0B2D95
:1007F000F5D1C824641E00F059FC2006FAD10DB0D2
:10080000F0BDC046FA000020FFFF00009048002124
:100810008182016041608160C16001617047C046B2
:10082000F0B583B002920C4606464A480078410073
:10083000D64D695A8000D64F3858FFF72AFE4648F1
:1008400000784100695A80003858FFF722FE0020E6
:10085000A64201D2019001E0012101913D490978B0
:100860004A00CA4B9D5A8900C94A5358014603E0C1
:10087000801C491C20280BD02A46CA40D207F7D03A
:10088000032282401F6897431F601A681A60EFE7CF
:10089000314800784100BD4A515A8000BC4A125884
:1008A0000023184603E09B1C401C202B0BD00D4658
:1008B000C540ED07F7D003259D401768AF4317608B
:1008C00015681560EFE724480470019880192149E4
:1008D0000870029900293AD0C1B24800AB4A105AB8
:1008E0008900AB4A51580022134603E0921C5B1C5E
:1008F000202A0ED00546DD40ED07F7D003259540B0
:100900000E68AE430E60012595400E682E430E60C2
:10091000ECE762009D4B9A5AA3009D4CE3580024DB
:10092000254603E0A41C6D1C202C0ED01646EE407C
:10093000F607F7D00326A6401F68B7431F600126BD
:10094000A6401F6837431F60ECE788629A6103B0D6
:10095000F0BDC046FB000020FC0000200922101A58
:100960000122824048003A490B5A13430B52704708
:10097000B0B5032B2FD89B0001A4E3589F46C04677
:10098000B509000891090008B10900089509000897
:100990001018401EC0B20923181A0023DB439340ED
:1009A000DA43824048002A490B5A13430B5212E0A3
:1009B000891A491CCBB29A189A420CD90924241AD4
:1009C0000120A040224C5B00E55A0543E552491C3A
:1009D000CBB29A42F7D8B0BDF0B586B0059202917D
:1009E000002930D00A21C91A01910027184A00971E
:1009F00003E07F1C02998F4225D0B900019B591852
:100A00004BB20624E41A049409069B1F0393009D2D
:100A10000BE0039CE340059C2C19E4B26400165BD8
:100A20001E4316536D1C042DE3D0C35D9B00074C81
:100A3000E3185B5D5B061B0E03246406A142E8DA43
:100A4000049CA340E7E706B0F0BDC04600000020CC
:100A5000A0000020B0B584B001AC0120E07100021C
:100A6000A08040200190064D28462146FFF7C8FC93
:100A70002020019028462146FFF7C2FC04B0B0BDFB
:100A8000000C004870B588B0FF20043005A98880AC
:100A9000102005901748FFF7B3FC0125680229468E
:100AA000FFF742FD144C2046FFF7F0FB6E46304640
:100AB000FFF73BFC35700020049003900290204625
:100AC0003146FFF71BFC042107222046FFF7CEFB2F
:100AD0002046FFF7EDFB20462946FFF7CEFB01211C
:100AE0002046FFF7FEFB0028F9D02046FFF718FC50
:100AF00008B070BD000800480024014010B5012472
:100B000060042146FFF7F4FCA0042146FFF7F0FC47
:100B1000E0042146FFF7ECFC20052146FFF7E8FC46
:100B200010BD0000F0B585B002A800278771FF2135
:100B300002318180019702E07F1C0B2F24D07D00C1
:100B4000124C605B0290BE00114CA05902A9FFF745
:100B500057FC0E48415BA059FFF79BFC0B48405BDC
:100B6000A159019B1A4603E0921C5B1C202AE3D08A
:100B70000546DD40ED07F7D0032595400E68AE43EE
:100B80000E600D680D60EFE705B0F0BDB600002007
:100B9000CC000020F0B58FB04CA009A90CC80CC146
:100BA0001CC81CC10088088000F024FAFFF72EFE44
:100BB0004C4D28784C4E31788143C80717D100241A
:100BC000E31009A816210322FFF706FF601C31215C
:100BD0000901FFF7EFFA0C4600F068FA00F00AFA94
:100BE000FFF714FE287831788143C807E8D03F48E2
:100BF00007903F48069004A8052101713D480490E4
:100C000002A8002707713C48029000F0F3F9FFF7B3
:100C1000FDFD297830788843032281074BD4019267
:100C20003C4615E0E31002A804210322FFF7D4FE9E
:100C3000601CD021FFF7BEFA0C4600F037FA00F036
:100C4000D9F9FFF7E3FD297830788843810734D458
:100C5000C10734D101070BD4400713D5F8B2401CAB
:100C600026494143490C03224A43801A87B208E0CF
:100C70000321002F084600D03846401EFFF79AFA9D
:100C8000CFB20024002F0DD0022FCBD0012FD4D112
:100C9000E31006A808210322FFF79EFE601C152121
:100CA0000901C7E7E31004A805210322FFF794FE1A
:100CB000601CF021BEE7174605E0019F03E0E11745
:100CC000204600F04BF8F8B20FB0F0BD12010E094B
:100CD0001D130112070505131B070D01090C1D0348
:100CE0000F0D0000FA000020F90000200B0F151472
:100CF00002120501130E010B100F0E07ABAA000024
:100D0000FFF7FCFEFFF7A6FE00F036F8FFF70AFF3C
:100D1000FFF7B8FE01E0FFF7BBFCFFF73BFF012840
:100D2000F9D00028F9D100F057F8F6E710B51148CE
:100D300006C84B054B40C90A540564185440E108E5
:100D400059400A014A40090F2301591861400838E7
:100D5000026041600023501E994110BD03460B43C1
:100D600000D11946034A5160002B00D101201060C8
:100D70007047C04600010020B0B584B00124204671
:100D80002146FFF7D1FB20072146FFF7BFFB03AD4C
:100D9000AC708320400028802846FFF77FFB0720A7
:100DA00028702846FFF77AFB01ADAC71E002A880FD
:100DB00003200621FFF7D6FB022001902846FFF70B
:100DC000EFFAFFF7D7FA0348402101608021016064
:100DD00004B0B0BD80E100E0F0B5C1B00AACDC21E8
:100DE0002046FFF7BCF96420012121520320009026
:100DF000002005220192099002900790039108912A
:100E00000C4602E000F052F9049C00F0F3F8FFF702
:100E1000FDFC744800787449097801403C20084082
:100E2000001F1F2808D88008C1B28B22CA40D107F2
:100E300002D06EA1085C00900998401C0C21FFF7BD
:100E400099F90991200618D0FFF770FF0B220025B1
:100E50002B46FFF74DF91446FFF768FF0A222B4691
:100E6000FFF746F9142060430AA908185100425AB6
:100E7000002AE9D140185A4901800998002804D075
:100E800000200646002833D086E00098C0B2032830
:100E9000089B08D8784400794000874401060B0E6F
:100EA0000198401E03E0029809E00198401C01905F
:100EB000029804E00298401E01E00298401C029053
:100EC000C1B2012000260929044600D83446019AFF
:100ED000D2B20A2A00D82346039CE5B26D3D6C428B
:100EE0006C41002B089B32D0002B33D0002853D10B
:100EF000049600260AAD059605E0069D1435761C7D
:100F00000B2E00D17EE70695059F03E0AD1C7F1CEC
:100F10000A2FF2D02C88002CF8D0F8B2F1B2FFF7EB
:100F20001DFD0798C0B2411E88412D498C42089B87
:100F3000194600D001460998421E904100291946E1
:100F400000D101460029E1D1601E2880DEE723465A
:100F5000002BCBD10798000601D1039801E003983C
:100F6000401C0390C0B2401C142353430AAAD21859
:100F70004900535A50521A49581A42424241079264
:100F8000981E80B2891E89B2884201D3002000E0F9
:100F90000120079E0028ABD0632005E000F086F812
:100FA0000899481E090619D00890FFF72FFC002762
:100FB0000AAC099703E014347F1C0B2FEED02646B1
:100FC000099D03E0B61C6D1C0A2DF4D03088002862
:100FD000F8D1E8B2F9B2FFF7C1FCF3E741B0F0BDD8
:100FE000FFFF0000FA000020F900002003020001CA
:100FF0000000000070B5274E3578274C4021204670
:10100000FFF742FA01218143317020212046FFF78A
:101010003BFA4000022181433078084330701F4C76
:1010200004212046FFF75DF900282ED00421204638
:10103000FFF721F92046FFF751F9C109184A11704D
:101040000F2212020240174810184242424150013A
:10105000327802431E20084003460A3B5C425C4152
:10106000A3001343123842424241D00018431F22CA
:101070000A40114615394B424B41190101430F3AC1
:101080005042504140010843307030786840064972
:10109000087070BDFA000020000C004800240140D8
:1010A000F800002000F8FFFFF9000020F0B581B043
:1010B00000252E4670000E490F182C463888E04057
:1010C000012202400920001BC0B2F1B2FFF7A8FBC9
:1010D0008020FFF731F9641C0A2CEFD1761C0B2E0F
:1010E000E8D1002001460246FFF79AFB01B0F0BDAF
:1010F000A000002002E008C8121F08C1002AFAD18F
:1011000070477047002001E001C1121F002AFBD187
:10111000704700003811000800000020F8000000AF
:10112000F410000830120008F8000020100200003F
:10113000041100080000000000000000070507057A
:101140000606050707040407060505060704060743
:10115000070406040704050705050705070202073B
:10116000030105070506050504040407070705052F
:101170000705050507050507070507040705050613
:101180000705060503060106070202020505050715
:101190000505020205050707050202050502020210
:1011A000070304070306050702000002000000020F
:1011B00007050507060202070601020707010307E4
:1011C00005070101070601070407050707010204D7
:1011D00003030606070507010000000000000000E9
:1011E00000004800480000008400FC0000000200ED
:1011F0000400080010001000080020004000020059
:1012000004000800000000480000004800000048FA
:10121000000C00480004004800080048000800488E
:1012200000080048000C0048000C0048000C004872
:04000005080000C12E
:00000001FF
